{
  "address": "0x137c287cBbcFd7a915999F58cf33E8D7261FA19B",
  "abi": [
    {
      "inputs": [],
      "stateMutability": "nonpayable",
      "type": "constructor"
    },
    {
      "anonymous": false,
      "inputs": [
        {
          "indexed": true,
          "internalType": "address",
          "name": "owner",
          "type": "address"
        },
        {
          "indexed": true,
          "internalType": "address",
          "name": "approved",
          "type": "address"
        },
        {
          "indexed": true,
          "internalType": "uint256",
          "name": "tokenId",
          "type": "uint256"
        }
      ],
      "name": "Approval",
      "type": "event"
    },
    {
      "anonymous": false,
      "inputs": [
        {
          "indexed": true,
          "internalType": "address",
          "name": "owner",
          "type": "address"
        },
        {
          "indexed": true,
          "internalType": "address",
          "name": "operator",
          "type": "address"
        },
        {
          "indexed": false,
          "internalType": "bool",
          "name": "approved",
          "type": "bool"
        }
      ],
      "name": "ApprovalForAll",
      "type": "event"
    },
    {
      "anonymous": false,
      "inputs": [
        {
          "indexed": true,
          "internalType": "uint256",
          "name": "tokenId",
          "type": "uint256"
        },
        {
          "indexed": false,
          "internalType": "string",
          "name": "tokenURI",
          "type": "string"
        }
      ],
      "name": "CreatedSVGNFT",
      "type": "event"
    },
    {
      "anonymous": false,
      "inputs": [
        {
          "indexed": true,
          "internalType": "address",
          "name": "from",
          "type": "address"
        },
        {
          "indexed": true,
          "internalType": "address",
          "name": "to",
          "type": "address"
        },
        {
          "indexed": true,
          "internalType": "uint256",
          "name": "tokenId",
          "type": "uint256"
        }
      ],
      "name": "Transfer",
      "type": "event"
    },
    {
      "inputs": [
        {
          "internalType": "address",
          "name": "to",
          "type": "address"
        },
        {
          "internalType": "uint256",
          "name": "tokenId",
          "type": "uint256"
        }
      ],
      "name": "approve",
      "outputs": [],
      "stateMutability": "nonpayable",
      "type": "function"
    },
    {
      "inputs": [
        {
          "internalType": "address",
          "name": "owner",
          "type": "address"
        }
      ],
      "name": "balanceOf",
      "outputs": [
        {
          "internalType": "uint256",
          "name": "",
          "type": "uint256"
        }
      ],
      "stateMutability": "view",
      "type": "function"
    },
    {
      "inputs": [
        {
          "internalType": "string",
          "name": "_svg",
          "type": "string"
        }
      ],
      "name": "create",
      "outputs": [],
      "stateMutability": "nonpayable",
      "type": "function"
    },
    {
      "inputs": [
        {
          "internalType": "string",
          "name": "_imageURI",
          "type": "string"
        }
      ],
      "name": "formatTokenURI",
      "outputs": [
        {
          "internalType": "string",
          "name": "",
          "type": "string"
        }
      ],
      "stateMutability": "pure",
      "type": "function"
    },
    {
      "inputs": [
        {
          "internalType": "uint256",
          "name": "tokenId",
          "type": "uint256"
        }
      ],
      "name": "getApproved",
      "outputs": [
        {
          "internalType": "address",
          "name": "",
          "type": "address"
        }
      ],
      "stateMutability": "view",
      "type": "function"
    },
    {
      "inputs": [
        {
          "internalType": "address",
          "name": "owner",
          "type": "address"
        },
        {
          "internalType": "address",
          "name": "operator",
          "type": "address"
        }
      ],
      "name": "isApprovedForAll",
      "outputs": [
        {
          "internalType": "bool",
          "name": "",
          "type": "bool"
        }
      ],
      "stateMutability": "view",
      "type": "function"
    },
    {
      "inputs": [],
      "name": "name",
      "outputs": [
        {
          "internalType": "string",
          "name": "",
          "type": "string"
        }
      ],
      "stateMutability": "view",
      "type": "function"
    },
    {
      "inputs": [
        {
          "internalType": "uint256",
          "name": "tokenId",
          "type": "uint256"
        }
      ],
      "name": "ownerOf",
      "outputs": [
        {
          "internalType": "address",
          "name": "",
          "type": "address"
        }
      ],
      "stateMutability": "view",
      "type": "function"
    },
    {
      "inputs": [
        {
          "internalType": "address",
          "name": "from",
          "type": "address"
        },
        {
          "internalType": "address",
          "name": "to",
          "type": "address"
        },
        {
          "internalType": "uint256",
          "name": "tokenId",
          "type": "uint256"
        }
      ],
      "name": "safeTransferFrom",
      "outputs": [],
      "stateMutability": "nonpayable",
      "type": "function"
    },
    {
      "inputs": [
        {
          "internalType": "address",
          "name": "from",
          "type": "address"
        },
        {
          "internalType": "address",
          "name": "to",
          "type": "address"
        },
        {
          "internalType": "uint256",
          "name": "tokenId",
          "type": "uint256"
        },
        {
          "internalType": "bytes",
          "name": "_data",
          "type": "bytes"
        }
      ],
      "name": "safeTransferFrom",
      "outputs": [],
      "stateMutability": "nonpayable",
      "type": "function"
    },
    {
      "inputs": [
        {
          "internalType": "address",
          "name": "operator",
          "type": "address"
        },
        {
          "internalType": "bool",
          "name": "approved",
          "type": "bool"
        }
      ],
      "name": "setApprovalForAll",
      "outputs": [],
      "stateMutability": "nonpayable",
      "type": "function"
    },
    {
      "inputs": [
        {
          "internalType": "bytes4",
          "name": "interfaceId",
          "type": "bytes4"
        }
      ],
      "name": "supportsInterface",
      "outputs": [
        {
          "internalType": "bool",
          "name": "",
          "type": "bool"
        }
      ],
      "stateMutability": "view",
      "type": "function"
    },
    {
      "inputs": [
        {
          "internalType": "string",
          "name": "_svg",
          "type": "string"
        }
      ],
      "name": "svgToImageURI",
      "outputs": [
        {
          "internalType": "string",
          "name": "",
          "type": "string"
        }
      ],
      "stateMutability": "pure",
      "type": "function"
    },
    {
      "inputs": [],
      "name": "symbol",
      "outputs": [
        {
          "internalType": "string",
          "name": "",
          "type": "string"
        }
      ],
      "stateMutability": "view",
      "type": "function"
    },
    {
      "inputs": [],
      "name": "tokenCounter",
      "outputs": [
        {
          "internalType": "uint256",
          "name": "",
          "type": "uint256"
        }
      ],
      "stateMutability": "view",
      "type": "function"
    },
    {
      "inputs": [
        {
          "internalType": "uint256",
          "name": "tokenId",
          "type": "uint256"
        }
      ],
      "name": "tokenURI",
      "outputs": [
        {
          "internalType": "string",
          "name": "",
          "type": "string"
        }
      ],
      "stateMutability": "view",
      "type": "function"
    },
    {
      "inputs": [
        {
          "internalType": "address",
          "name": "from",
          "type": "address"
        },
        {
          "internalType": "address",
          "name": "to",
          "type": "address"
        },
        {
          "internalType": "uint256",
          "name": "tokenId",
          "type": "uint256"
        }
      ],
      "name": "transferFrom",
      "outputs": [],
      "stateMutability": "nonpayable",
      "type": "function"
    }
  ],
  "transactionHash": "0x8beda9d54b948945477d17486f9b627fd5b55d5fcd3e0dad76c28317884316bf",
  "args": [],
  "numDeployments": 1,
  "solcInputHash": "79284e15494d278d3ae09b81e33a1c35",
  "bytecode": "0x60806040523480156200001157600080fd5b506040518060400160405280600781526020017f535647204e4654000000000000000000000000000000000000000000000000008152506040518060400160405280600681526020017f7376674e46540000000000000000000000000000000000000000000000000000815250816000908051906020019062000096929190620000c0565b508060019080519060200190620000af929190620000c0565b5050506000600781905550620001d4565b828054620000ce906200019f565b90600052602060002090601f016020900481019282620000f257600085556200013e565b82601f106200010d57805160ff19168380011785556200013e565b828001600101855582156200013e579182015b828111156200013d57825182559160200191906001019062000120565b5b5090506200014d919062000151565b5090565b5b808211156200016c57600081600090555060010162000152565b5090565b7f4e487b7100000000000000000000000000000000000000000000000000000000600052602260045260246000fd5b60006002820490506001821680620001b857607f821691505b602082108103620001ce57620001cd62000170565b5b50919050565b61319280620001e46000396000f3fe608060405234801561001057600080fd5b506004361061010b5760003560e01c806370a08231116100a2578063b6a46b3b11610071578063b6a46b3b146102dc578063b88d4fde146102f8578063c87b56dd14610314578063d082e38114610344578063e985e9c5146103625761010b565b806370a082311461024257806371aee1931461027257806395d89b41146102a2578063a22cb465146102c05761010b565b806323b872dd116100de57806323b872dd146101aa57806330d871c6146101c657806342842e0e146101f65780636352211e146102125761010b565b806301ffc9a71461011057806306fdde0314610140578063081812fc1461015e578063095ea7b31461018e575b600080fd5b61012a60048036038101906101259190611cf0565b610392565b6040516101379190611d38565b60405180910390f35b610148610474565b6040516101559190611dec565b60405180910390f35b61017860048036038101906101739190611e44565b610506565b6040516101859190611eb2565b60405180910390f35b6101a860048036038101906101a39190611ef9565b61058b565b005b6101c460048036038101906101bf9190611f39565b6106a2565b005b6101e060048036038101906101db91906120c1565b610702565b6040516101ed9190611dec565b60405180910390f35b610210600480360381019061020b9190611f39565b61079b565b005b61022c60048036038101906102279190611e44565b6107bb565b6040516102399190611eb2565b60405180910390f35b61025c6004803603810190610257919061210a565b61086c565b6040516102699190612146565b60405180910390f35b61028c600480360381019061028791906120c1565b610923565b6040516102999190611dec565b60405180910390f35b6102aa6109b0565b6040516102b79190611dec565b60405180910390f35b6102da60048036038101906102d5919061218d565b610a42565b005b6102f660048036038101906102f191906120c1565b610a58565b005b610312600480360381019061030d919061226e565b610ae1565b005b61032e60048036038101906103299190611e44565b610b43565b60405161033b9190611dec565b60405180910390f35b61034c610c94565b6040516103599190612146565b60405180910390f35b61037c600480360381019061037791906122f1565b610c9a565b6040516103899190611d38565b60405180910390f35b60007f80ac58cd000000000000000000000000000000000000000000000000000000007bffffffffffffffffffffffffffffffffffffffffffffffffffffffff1916827bffffffffffffffffffffffffffffffffffffffffffffffffffffffff1916148061045d57507f5b5e139f000000000000000000000000000000000000000000000000000000007bffffffffffffffffffffffffffffffffffffffffffffffffffffffff1916827bffffffffffffffffffffffffffffffffffffffffffffffffffffffff1916145b8061046d575061046c82610d2e565b5b9050919050565b60606000805461048390612360565b80601f01602080910402602001604051908101604052809291908181526020018280546104af90612360565b80156104fc5780601f106104d1576101008083540402835291602001916104fc565b820191906000526020600020905b8154815290600101906020018083116104df57829003601f168201915b5050505050905090565b600061051182610d98565b610550576040517f08c379a000000000000000000000000000000000000000000000000000000000815260040161054790612403565b60405180910390fd5b6004600083815260200190815260200160002060009054906101000a900473ffffffffffffffffffffffffffffffffffffffff169050919050565b6000610596826107bb565b90508073ffffffffffffffffffffffffffffffffffffffff168373ffffffffffffffffffffffffffffffffffffffff1603610606576040517f08c379a00000000000000000000000000000000000000000000000000000000081526004016105fd90612495565b60405180910390fd5b8073ffffffffffffffffffffffffffffffffffffffff16610625610e04565b73ffffffffffffffffffffffffffffffffffffffff16148061065457506106538161064e610e04565b610c9a565b5b610693576040517f08c379a000000000000000000000000000000000000000000000000000000000815260040161068a90612527565b60405180910390fd5b61069d8383610e0c565b505050565b6106b36106ad610e04565b82610ec5565b6106f2576040517f08c379a00000000000000000000000000000000000000000000000000000000081526004016106e9906125b9565b60405180910390fd5b6106fd838383610fa3565b505050565b606060006040518060400160405280601a81526020017f646174613a696d6167652f7376672b786d6c3b6261736536342c00000000000081525090506000610768846040516020016107549190612615565b604051602081830303815290604052611209565b90506000828260405160200161077f92919061262c565b6040516020818303038152906040529050809350505050919050565b6107b683838360405180602001604052806000815250610ae1565b505050565b6000806002600084815260200190815260200160002060009054906101000a900473ffffffffffffffffffffffffffffffffffffffff169050600073ffffffffffffffffffffffffffffffffffffffff168173ffffffffffffffffffffffffffffffffffffffff1603610863576040517f08c379a000000000000000000000000000000000000000000000000000000000815260040161085a906126c2565b60405180910390fd5b80915050919050565b60008073ffffffffffffffffffffffffffffffffffffffff168273ffffffffffffffffffffffffffffffffffffffff16036108dc576040517f08c379a00000000000000000000000000000000000000000000000000000000081526004016108d390612754565b60405180910390fd5b600360008373ffffffffffffffffffffffffffffffffffffffff1673ffffffffffffffffffffffffffffffffffffffff168152602001908152602001600020549050919050565b606060006040518060400160405280601d81526020017f646174613a6170706c69636174696f6e2f6a736f6e3b6261736536342c00000081525090508061098884604051602001610974919061287e565b604051602081830303815290604052611209565b60405160200161099992919061262c565b604051602081830303815290604052915050919050565b6060600180546109bf90612360565b80601f01602080910402602001604051908101604052809291908181526020018280546109eb90612360565b8015610a385780601f10610a0d57610100808354040283529160200191610a38565b820191906000526020600020905b815481529060010190602001808311610a1b57829003601f168201915b5050505050905090565b610a54610a4d610e04565b8383611381565b5050565b610a64336007546114ed565b6000610a6f82610702565b90506000610a7c82610923565b9050610a8a6007548261150b565b6007547ff5acc616aa8ecd00e5d76674d7812f9c3c3571d662c9fba4499deefa6d0be12d82604051610abc9190611dec565b60405180910390a260076000815480929190610ad79061290b565b9190505550505050565b610af2610aec610e04565b83610ec5565b610b31576040517f08c379a0000000000000000000000000000000000000000000000000000000008152600401610b28906125b9565b60405180910390fd5b610b3d8484848461157f565b50505050565b6060610b4e82610d98565b610b8d576040517f08c379a0000000000000000000000000000000000000000000000000000000008152600401610b84906129c5565b60405180910390fd5b6000600660008481526020019081526020016000208054610bad90612360565b80601f0160208091040260200160405190810160405280929190818152602001828054610bd990612360565b8015610c265780601f10610bfb57610100808354040283529160200191610c26565b820191906000526020600020905b815481529060010190602001808311610c0957829003601f168201915b505050505090506000610c376115db565b90506000815103610c4c578192505050610c8f565b600082511115610c81578082604051602001610c6992919061262c565b60405160208183030381529060405292505050610c8f565b610c8a846115f2565b925050505b919050565b60075481565b6000600560008473ffffffffffffffffffffffffffffffffffffffff1673ffffffffffffffffffffffffffffffffffffffff16815260200190815260200160002060008373ffffffffffffffffffffffffffffffffffffffff1673ffffffffffffffffffffffffffffffffffffffff16815260200190815260200160002060009054906101000a900460ff16905092915050565b60007f01ffc9a7000000000000000000000000000000000000000000000000000000007bffffffffffffffffffffffffffffffffffffffffffffffffffffffff1916827bffffffffffffffffffffffffffffffffffffffffffffffffffffffff1916149050919050565b60008073ffffffffffffffffffffffffffffffffffffffff166002600084815260200190815260200160002060009054906101000a900473ffffffffffffffffffffffffffffffffffffffff1673ffffffffffffffffffffffffffffffffffffffff1614159050919050565b600033905090565b816004600083815260200190815260200160002060006101000a81548173ffffffffffffffffffffffffffffffffffffffff021916908373ffffffffffffffffffffffffffffffffffffffff160217905550808273ffffffffffffffffffffffffffffffffffffffff16610e7f836107bb565b73ffffffffffffffffffffffffffffffffffffffff167f8c5be1e5ebec7d5bd14f71427d1e84f3dd0314c0f7b2291e5b200ac8c7c3b92560405160405180910390a45050565b6000610ed082610d98565b610f0f576040517f08c379a0000000000000000000000000000000000000000000000000000000008152600401610f0690612a57565b60405180910390fd5b6000610f1a836107bb565b90508073ffffffffffffffffffffffffffffffffffffffff168473ffffffffffffffffffffffffffffffffffffffff161480610f8957508373ffffffffffffffffffffffffffffffffffffffff16610f7184610506565b73ffffffffffffffffffffffffffffffffffffffff16145b80610f9a5750610f998185610c9a565b5b91505092915050565b8273ffffffffffffffffffffffffffffffffffffffff16610fc3826107bb565b73ffffffffffffffffffffffffffffffffffffffff1614611019576040517f08c379a000000000000000000000000000000000000000000000000000000000815260040161101090612ae9565b60405180910390fd5b600073ffffffffffffffffffffffffffffffffffffffff168273ffffffffffffffffffffffffffffffffffffffff1603611088576040517f08c379a000000000000000000000000000000000000000000000000000000000815260040161107f90612b7b565b60405180910390fd5b611093838383611699565b61109e600082610e0c565b6001600360008573ffffffffffffffffffffffffffffffffffffffff1673ffffffffffffffffffffffffffffffffffffffff16815260200190815260200160002060008282546110ee9190612b9b565b925050819055506001600360008473ffffffffffffffffffffffffffffffffffffffff1673ffffffffffffffffffffffffffffffffffffffff16815260200190815260200160002060008282546111459190612bcf565b92505081905550816002600083815260200190815260200160002060006101000a81548173ffffffffffffffffffffffffffffffffffffffff021916908373ffffffffffffffffffffffffffffffffffffffff160217905550808273ffffffffffffffffffffffffffffffffffffffff168473ffffffffffffffffffffffffffffffffffffffff167fddf252ad1be2c89b69c2b068fc378daa952ba7f163c4a11628f55a4df523b3ef60405160405180910390a461120483838361169e565b505050565b6060600082510361122b5760405180602001604052806000815250905061137c565b600060405180606001604052806040815260200161311d604091399050600060036002855161125a9190612bcf565b6112649190612c54565b60046112709190612c85565b905060006020826112819190612bcf565b67ffffffffffffffff81111561129a57611299611f96565b5b6040519080825280601f01601f1916602001820160405280156112cc5781602001600182028036833780820191505090505b509050818152600183018586518101602084015b8183101561133b576003830192508251603f8160121c168501518253600182019150603f81600c1c168501518253600182019150603f8160061c168501518253600182019150603f81168501518253600182019150506112e0565b600389510660018114611355576002811461136557611370565b613d3d60f01b6002830352611370565b603d60f81b60018303525b50505050508093505050505b919050565b8173ffffffffffffffffffffffffffffffffffffffff168373ffffffffffffffffffffffffffffffffffffffff16036113ef576040517f08c379a00000000000000000000000000000000000000000000000000000000081526004016113e690612d2b565b60405180910390fd5b80600560008573ffffffffffffffffffffffffffffffffffffffff1673ffffffffffffffffffffffffffffffffffffffff16815260200190815260200160002060008473ffffffffffffffffffffffffffffffffffffffff1673ffffffffffffffffffffffffffffffffffffffff16815260200190815260200160002060006101000a81548160ff0219169083151502179055508173ffffffffffffffffffffffffffffffffffffffff168373ffffffffffffffffffffffffffffffffffffffff167f17307eab39ab6107e8899845ad3d59bd9653f200f220920489ca2b5937696c31836040516114e09190611d38565b60405180910390a3505050565b6115078282604051806020016040528060008152506116a3565b5050565b61151482610d98565b611553576040517f08c379a000000000000000000000000000000000000000000000000000000000815260040161154a90612dbd565b60405180910390fd5b8060066000848152602001908152602001600020908051906020019061157a929190611be1565b505050565b61158a848484610fa3565b611596848484846116fe565b6115d5576040517f08c379a00000000000000000000000000000000000000000000000000000000081526004016115cc90612e4f565b60405180910390fd5b50505050565b606060405180602001604052806000815250905090565b60606115fd82610d98565b61163c576040517f08c379a000000000000000000000000000000000000000000000000000000000815260040161163390612ee1565b60405180910390fd5b60006116466115db565b905060008151116116665760405180602001604052806000815250611691565b8061167084611885565b60405160200161168192919061262c565b6040516020818303038152906040525b915050919050565b505050565b505050565b6116ad83836119e5565b6116ba60008484846116fe565b6116f9576040517f08c379a00000000000000000000000000000000000000000000000000000000081526004016116f090612e4f565b60405180910390fd5b505050565b600061171f8473ffffffffffffffffffffffffffffffffffffffff16611bbe565b15611878578373ffffffffffffffffffffffffffffffffffffffff1663150b7a02611748610e04565b8786866040518563ffffffff1660e01b815260040161176a9493929190612f56565b6020604051808303816000875af19250505080156117a657506040513d601f19601f820116820180604052508101906117a39190612fb7565b60015b611828573d80600081146117d6576040519150601f19603f3d011682016040523d82523d6000602084013e6117db565b606091505b506000815103611820576040517f08c379a000000000000000000000000000000000000000000000000000000000815260040161181790612e4f565b60405180910390fd5b805181602001fd5b63150b7a0260e01b7bffffffffffffffffffffffffffffffffffffffffffffffffffffffff1916817bffffffffffffffffffffffffffffffffffffffffffffffffffffffff19161491505061187d565b600190505b949350505050565b6060600082036118cc576040518060400160405280600181526020017f300000000000000000000000000000000000000000000000000000000000000081525090506119e0565b600082905060005b600082146118fe5780806118e79061290b565b915050600a826118f79190612c54565b91506118d4565b60008167ffffffffffffffff81111561191a57611919611f96565b5b6040519080825280601f01601f19166020018201604052801561194c5781602001600182028036833780820191505090505b5090505b600085146119d9576001826119659190612b9b565b9150600a856119749190612fe4565b60306119809190612bcf565b60f81b81838151811061199657611995613015565b5b60200101907effffffffffffffffffffffffffffffffffffffffffffffffffffffffffffff1916908160001a905350600a856119d29190612c54565b9450611950565b8093505050505b919050565b600073ffffffffffffffffffffffffffffffffffffffff168273ffffffffffffffffffffffffffffffffffffffff1603611a54576040517f08c379a0000000000000000000000000000000000000000000000000000000008152600401611a4b90613090565b60405180910390fd5b611a5d81610d98565b15611a9d576040517f08c379a0000000000000000000000000000000000000000000000000000000008152600401611a94906130fc565b60405180910390fd5b611aa960008383611699565b6001600360008473ffffffffffffffffffffffffffffffffffffffff1673ffffffffffffffffffffffffffffffffffffffff1681526020019081526020016000206000828254611af99190612bcf565b92505081905550816002600083815260200190815260200160002060006101000a81548173ffffffffffffffffffffffffffffffffffffffff021916908373ffffffffffffffffffffffffffffffffffffffff160217905550808273ffffffffffffffffffffffffffffffffffffffff16600073ffffffffffffffffffffffffffffffffffffffff167fddf252ad1be2c89b69c2b068fc378daa952ba7f163c4a11628f55a4df523b3ef60405160405180910390a4611bba6000838361169e565b5050565b6000808273ffffffffffffffffffffffffffffffffffffffff163b119050919050565b828054611bed90612360565b90600052602060002090601f016020900481019282611c0f5760008555611c56565b82601f10611c2857805160ff1916838001178555611c56565b82800160010185558215611c56579182015b82811115611c55578251825591602001919060010190611c3a565b5b509050611c639190611c67565b5090565b5b80821115611c80576000816000905550600101611c68565b5090565b6000604051905090565b600080fd5b600080fd5b60007fffffffff0000000000000000000000000000000000000000000000000000000082169050919050565b611ccd81611c98565b8114611cd857600080fd5b50565b600081359050611cea81611cc4565b92915050565b600060208284031215611d0657611d05611c8e565b5b6000611d1484828501611cdb565b91505092915050565b60008115159050919050565b611d3281611d1d565b82525050565b6000602082019050611d4d6000830184611d29565b92915050565b600081519050919050565b600082825260208201905092915050565b60005b83811015611d8d578082015181840152602081019050611d72565b83811115611d9c576000848401525b50505050565b6000601f19601f8301169050919050565b6000611dbe82611d53565b611dc88185611d5e565b9350611dd8818560208601611d6f565b611de181611da2565b840191505092915050565b60006020820190508181036000830152611e068184611db3565b905092915050565b6000819050919050565b611e2181611e0e565b8114611e2c57600080fd5b50565b600081359050611e3e81611e18565b92915050565b600060208284031215611e5a57611e59611c8e565b5b6000611e6884828501611e2f565b91505092915050565b600073ffffffffffffffffffffffffffffffffffffffff82169050919050565b6000611e9c82611e71565b9050919050565b611eac81611e91565b82525050565b6000602082019050611ec76000830184611ea3565b92915050565b611ed681611e91565b8114611ee157600080fd5b50565b600081359050611ef381611ecd565b92915050565b60008060408385031215611f1057611f0f611c8e565b5b6000611f1e85828601611ee4565b9250506020611f2f85828601611e2f565b9150509250929050565b600080600060608486031215611f5257611f51611c8e565b5b6000611f6086828701611ee4565b9350506020611f7186828701611ee4565b9250506040611f8286828701611e2f565b9150509250925092565b600080fd5b600080fd5b7f4e487b7100000000000000000000000000000000000000000000000000000000600052604160045260246000fd5b611fce82611da2565b810181811067ffffffffffffffff82111715611fed57611fec611f96565b5b80604052505050565b6000612000611c84565b905061200c8282611fc5565b919050565b600067ffffffffffffffff82111561202c5761202b611f96565b5b61203582611da2565b9050602081019050919050565b82818337600083830152505050565b600061206461205f84612011565b611ff6565b9050828152602081018484840111156120805761207f611f91565b5b61208b848285612042565b509392505050565b600082601f8301126120a8576120a7611f8c565b5b81356120b8848260208601612051565b91505092915050565b6000602082840312156120d7576120d6611c8e565b5b600082013567ffffffffffffffff8111156120f5576120f4611c93565b5b61210184828501612093565b91505092915050565b6000602082840312156121205761211f611c8e565b5b600061212e84828501611ee4565b91505092915050565b61214081611e0e565b82525050565b600060208201905061215b6000830184612137565b92915050565b61216a81611d1d565b811461217557600080fd5b50565b60008135905061218781612161565b92915050565b600080604083850312156121a4576121a3611c8e565b5b60006121b285828601611ee4565b92505060206121c385828601612178565b9150509250929050565b600067ffffffffffffffff8211156121e8576121e7611f96565b5b6121f182611da2565b9050602081019050919050565b600061221161220c846121cd565b611ff6565b90508281526020810184848401111561222d5761222c611f91565b5b612238848285612042565b509392505050565b600082601f83011261225557612254611f8c565b5b81356122658482602086016121fe565b91505092915050565b6000806000806080858703121561228857612287611c8e565b5b600061229687828801611ee4565b94505060206122a787828801611ee4565b93505060406122b887828801611e2f565b925050606085013567ffffffffffffffff8111156122d9576122d8611c93565b5b6122e587828801612240565b91505092959194509250565b6000806040838503121561230857612307611c8e565b5b600061231685828601611ee4565b925050602061232785828601611ee4565b9150509250929050565b7f4e487b7100000000000000000000000000000000000000000000000000000000600052602260045260246000fd5b6000600282049050600182168061237857607f821691505b60208210810361238b5761238a612331565b5b50919050565b7f4552433732313a20617070726f76656420717565727920666f72206e6f6e657860008201527f697374656e7420746f6b656e0000000000000000000000000000000000000000602082015250565b60006123ed602c83611d5e565b91506123f882612391565b604082019050919050565b6000602082019050818103600083015261241c816123e0565b9050919050565b7f4552433732313a20617070726f76616c20746f2063757272656e74206f776e6560008201527f7200000000000000000000000000000000000000000000000000000000000000602082015250565b600061247f602183611d5e565b915061248a82612423565b604082019050919050565b600060208201905081810360008301526124ae81612472565b9050919050565b7f4552433732313a20617070726f76652063616c6c6572206973206e6f74206f7760008201527f6e6572206e6f7220617070726f76656420666f7220616c6c0000000000000000602082015250565b6000612511603883611d5e565b915061251c826124b5565b604082019050919050565b6000602082019050818103600083015261254081612504565b9050919050565b7f4552433732313a207472616e736665722063616c6c6572206973206e6f74206f60008201527f776e6572206e6f7220617070726f766564000000000000000000000000000000602082015250565b60006125a3603183611d5e565b91506125ae82612547565b604082019050919050565b600060208201905081810360008301526125d281612596565b9050919050565b600081905092915050565b60006125ef82611d53565b6125f981856125d9565b9350612609818560208601611d6f565b80840191505092915050565b600061262182846125e4565b915081905092915050565b600061263882856125e4565b915061264482846125e4565b91508190509392505050565b7f4552433732313a206f776e657220717565727920666f72206e6f6e657869737460008201527f656e7420746f6b656e0000000000000000000000000000000000000000000000602082015250565b60006126ac602983611d5e565b91506126b782612650565b604082019050919050565b600060208201905081810360008301526126db8161269f565b9050919050565b7f4552433732313a2062616c616e636520717565727920666f7220746865207a6560008201527f726f206164647265737300000000000000000000000000000000000000000000602082015250565b600061273e602a83611d5e565b9150612749826126e2565b604082019050919050565b6000602082019050818103600083015261276d81612731565b9050919050565b7f7b226e616d65223a2022535647204e4654222c00000000000000000000000000815250565b7f226465736372697074696f6e223a2022416e204e4654206261736564206f6e2060008201527f53564721222c0000000000000000000000000000000000000000000000000000602082015250565b60006127f66026836125d9565b91506128018261279a565b602682019050919050565b7f22617472696275746573223a2022222c00000000000000000000000000000000815250565b7f22696d616765223a202200000000000000000000000000000000000000000000815250565b7f227d000000000000000000000000000000000000000000000000000000000000815250565b600061288982612774565b601382019150612898826127e9565b91506128a38261280c565b6010820191506128b282612832565b600a820191506128c282846125e4565b91506128cd82612858565b60028201915081905092915050565b7f4e487b7100000000000000000000000000000000000000000000000000000000600052601160045260246000fd5b600061291682611e0e565b91507fffffffffffffffffffffffffffffffffffffffffffffffffffffffffffffffff8203612948576129476128dc565b5b600182019050919050565b7f45524337323155524953746f726167653a2055524920717565727920666f722060008201527f6e6f6e6578697374656e7420746f6b656e000000000000000000000000000000602082015250565b60006129af603183611d5e565b91506129ba82612953565b604082019050919050565b600060208201905081810360008301526129de816129a2565b9050919050565b7f4552433732313a206f70657261746f7220717565727920666f72206e6f6e657860008201527f697374656e7420746f6b656e0000000000000000000000000000000000000000602082015250565b6000612a41602c83611d5e565b9150612a4c826129e5565b604082019050919050565b60006020820190508181036000830152612a7081612a34565b9050919050565b7f4552433732313a207472616e736665722066726f6d20696e636f72726563742060008201527f6f776e6572000000000000000000000000000000000000000000000000000000602082015250565b6000612ad3602583611d5e565b9150612ade82612a77565b604082019050919050565b60006020820190508181036000830152612b0281612ac6565b9050919050565b7f4552433732313a207472616e7366657220746f20746865207a65726f2061646460008201527f7265737300000000000000000000000000000000000000000000000000000000602082015250565b6000612b65602483611d5e565b9150612b7082612b09565b604082019050919050565b60006020820190508181036000830152612b9481612b58565b9050919050565b6000612ba682611e0e565b9150612bb183611e0e565b925082821015612bc457612bc36128dc565b5b828203905092915050565b6000612bda82611e0e565b9150612be583611e0e565b9250827fffffffffffffffffffffffffffffffffffffffffffffffffffffffffffffffff03821115612c1a57612c196128dc565b5b828201905092915050565b7f4e487b7100000000000000000000000000000000000000000000000000000000600052601260045260246000fd5b6000612c5f82611e0e565b9150612c6a83611e0e565b925082612c7a57612c79612c25565b5b828204905092915050565b6000612c9082611e0e565b9150612c9b83611e0e565b9250817fffffffffffffffffffffffffffffffffffffffffffffffffffffffffffffffff0483118215151615612cd457612cd36128dc565b5b828202905092915050565b7f4552433732313a20617070726f766520746f2063616c6c657200000000000000600082015250565b6000612d15601983611d5e565b9150612d2082612cdf565b602082019050919050565b60006020820190508181036000830152612d4481612d08565b9050919050565b7f45524337323155524953746f726167653a2055524920736574206f66206e6f6e60008201527f6578697374656e7420746f6b656e000000000000000000000000000000000000602082015250565b6000612da7602e83611d5e565b9150612db282612d4b565b604082019050919050565b60006020820190508181036000830152612dd681612d9a565b9050919050565b7f4552433732313a207472616e7366657220746f206e6f6e20455243373231526560008201527f63656976657220696d706c656d656e7465720000000000000000000000000000602082015250565b6000612e39603283611d5e565b9150612e4482612ddd565b604082019050919050565b60006020820190508181036000830152612e6881612e2c565b9050919050565b7f4552433732314d657461646174613a2055524920717565727920666f72206e6f60008201527f6e6578697374656e7420746f6b656e0000000000000000000000000000000000602082015250565b6000612ecb602f83611d5e565b9150612ed682612e6f565b604082019050919050565b60006020820190508181036000830152612efa81612ebe565b9050919050565b600081519050919050565b600082825260208201905092915050565b6000612f2882612f01565b612f328185612f0c565b9350612f42818560208601611d6f565b612f4b81611da2565b840191505092915050565b6000608082019050612f6b6000830187611ea3565b612f786020830186611ea3565b612f856040830185612137565b8181036060830152612f978184612f1d565b905095945050505050565b600081519050612fb181611cc4565b92915050565b600060208284031215612fcd57612fcc611c8e565b5b6000612fdb84828501612fa2565b91505092915050565b6000612fef82611e0e565b9150612ffa83611e0e565b92508261300a57613009612c25565b5b828206905092915050565b7f4e487b7100000000000000000000000000000000000000000000000000000000600052603260045260246000fd5b7f4552433732313a206d696e7420746f20746865207a65726f2061646472657373600082015250565b600061307a602083611d5e565b915061308582613044565b602082019050919050565b600060208201905081810360008301526130a98161306d565b9050919050565b7f4552433732313a20746f6b656e20616c7265616479206d696e74656400000000600082015250565b60006130e6601c83611d5e565b91506130f1826130b0565b602082019050919050565b60006020820190508181036000830152613115816130d9565b905091905056fe4142434445464748494a4b4c4d4e4f505152535455565758595a6162636465666768696a6b6c6d6e6f707172737475767778797a303132333435363738392b2fa2646970667358221220ffc630d4b7d32fbc3ba352ac6c01094b2d2b06bdfd5c12d16c29031d384461af64736f6c634300080d0033",
  "devdoc": {
    "kind": "dev",
    "methods": {
      "approve(address,uint256)": {
        "details": "See {IERC721-approve}."
      },
      "balanceOf(address)": {
        "details": "See {IERC721-balanceOf}."
      },
      "getApproved(uint256)": {
        "details": "See {IERC721-getApproved}."
      },
      "isApprovedForAll(address,address)": {
        "details": "See {IERC721-isApprovedForAll}."
      },
      "name()": {
        "details": "See {IERC721Metadata-name}."
      },
      "ownerOf(uint256)": {
        "details": "See {IERC721-ownerOf}."
      },
      "safeTransferFrom(address,address,uint256)": {
        "details": "See {IERC721-safeTransferFrom}."
      },
      "safeTransferFrom(address,address,uint256,bytes)": {
        "details": "See {IERC721-safeTransferFrom}."
      },
      "setApprovalForAll(address,bool)": {
        "details": "See {IERC721-setApprovalForAll}."
      },
      "supportsInterface(bytes4)": {
        "details": "See {IERC165-supportsInterface}."
      },
      "symbol()": {
        "details": "See {IERC721Metadata-symbol}."
      },
      "tokenURI(uint256)": {
        "details": "See {IERC721Metadata-tokenURI}."
      },
      "transferFrom(address,address,uint256)": {
        "details": "See {IERC721-transferFrom}."
      }
    },
    "version": 1
  },
  "userdoc": {
    "kind": "user",
    "methods": {},
    "version": 1
  },
  "storageLayout": {
    "storage": [
      {
        "astId": 25,
        "contract": "contracts/SVGNFT.sol:SVGNFT",
        "label": "_name",
        "offset": 0,
        "slot": "0",
        "type": "t_string_storage"
      },
      {
        "astId": 27,
        "contract": "contracts/SVGNFT.sol:SVGNFT",
        "label": "_symbol",
        "offset": 0,
        "slot": "1",
        "type": "t_string_storage"
      },
      {
        "astId": 31,
        "contract": "contracts/SVGNFT.sol:SVGNFT",
        "label": "_owners",
        "offset": 0,
        "slot": "2",
        "type": "t_mapping(t_uint256,t_address)"
      },
      {
        "astId": 35,
        "contract": "contracts/SVGNFT.sol:SVGNFT",
        "label": "_balances",
        "offset": 0,
        "slot": "3",
        "type": "t_mapping(t_address,t_uint256)"
      },
      {
        "astId": 39,
        "contract": "contracts/SVGNFT.sol:SVGNFT",
        "label": "_tokenApprovals",
        "offset": 0,
        "slot": "4",
        "type": "t_mapping(t_uint256,t_address)"
      },
      {
        "astId": 45,
        "contract": "contracts/SVGNFT.sol:SVGNFT",
        "label": "_operatorApprovals",
        "offset": 0,
        "slot": "5",
        "type": "t_mapping(t_address,t_mapping(t_address,t_bool))"
      },
      {
        "astId": 1012,
        "contract": "contracts/SVGNFT.sol:SVGNFT",
        "label": "_tokenURIs",
        "offset": 0,
        "slot": "6",
        "type": "t_mapping(t_uint256,t_string_storage)"
      },
      {
        "astId": 1833,
        "contract": "contracts/SVGNFT.sol:SVGNFT",
        "label": "tokenCounter",
        "offset": 0,
        "slot": "7",
        "type": "t_uint256"
      }
    ],
    "types": {
      "t_address": {
        "encoding": "inplace",
        "label": "address",
        "numberOfBytes": "20"
      },
      "t_bool": {
        "encoding": "inplace",
        "label": "bool",
        "numberOfBytes": "1"
      },
      "t_mapping(t_address,t_bool)": {
        "encoding": "mapping",
        "key": "t_address",
        "label": "mapping(address => bool)",
        "numberOfBytes": "32",
        "value": "t_bool"
      },
      "t_mapping(t_address,t_mapping(t_address,t_bool))": {
        "encoding": "mapping",
        "key": "t_address",
        "label": "mapping(address => mapping(address => bool))",
        "numberOfBytes": "32",
        "value": "t_mapping(t_address,t_bool)"
      },
      "t_mapping(t_address,t_uint256)": {
        "encoding": "mapping",
        "key": "t_address",
        "label": "mapping(address => uint256)",
        "numberOfBytes": "32",
        "value": "t_uint256"
      },
      "t_mapping(t_uint256,t_address)": {
        "encoding": "mapping",
        "key": "t_uint256",
        "label": "mapping(uint256 => address)",
        "numberOfBytes": "32",
        "value": "t_address"
      },
      "t_mapping(t_uint256,t_string_storage)": {
        "encoding": "mapping",
        "key": "t_uint256",
        "label": "mapping(uint256 => string)",
        "numberOfBytes": "32",
        "value": "t_string_storage"
      },
      "t_string_storage": {
        "encoding": "bytes",
        "label": "string",
        "numberOfBytes": "32"
      },
      "t_uint256": {
        "encoding": "inplace",
        "label": "uint256",
        "numberOfBytes": "32"
      }
    }
  }
}